S00C0000616463312E73726563BF
S11300000C9438000C944A000C944A000C944A0056
S11300100C944A000C944A000C944A000C944A0034
S11300200C944A000C944A000C944A000C944A0024
S11300300C944A000C944A000C944A000C944A0014
S11300400C944A000C944A000C944A000C944A0004
S11300500C944A000C944A000C944A000C944A00F4
S11300600C944A000C944A000C944A000C944A00E4
S113007011241FBECFEFD4E0DEBFCDBF21E0A0E04E
S1130080B1E001C01D92A130B207E1F70E94620104
S11300900C9473010C94000087B58A6687BDB99AE5
S11300A00895C2988BE792E90197F1F700C0000028
S11300B088B3846188BBB399FECF089588B38A7FDF
S11300C088BB89B38093000188B3856088BB089599
S11300D081E085BB17B8E7EAF1E63197F1F700C094
S11300E0000087B983ED90E30197F1F700C00000A9
S11300F017B808958BE385BB17B887EA91E6019793
S1130100F1F700C0000081E087B983ED90E3019727
S1130110F1F700C0000017B808958FE085BB17B849
S113012087EA91E60197F1F700C0000081E087B902
S113013083ED90E30197F1F700C0000017B808952C
S113014086E085BB17B887EA91E60197F1F700C00E
S1130150000081E087B983ED90E30197F1F700C0D7
S1130160000017B8089585BB8DE087B983ED90E34F
S11301700197F1F700C000008CE087B90895CF9390
S1130180DF93CDB7DEB7A0970FB6F894DEBF0FBEEE
S1130190CDBF8FEF84BB86B96894552454F85E01B3
S11301A021E1A20EB11C6894772475F80F2EFDE4AA
S11301B04F2EF02D0F2EF0E56F2EF02D0F2EF2E4C2
S11301C03F2EF02D0F2EF3E52F2EF02DCE010196AC
S11301D04C017E0190E2E90EF11C6E01ECE0CE0EC2
S11301E0D11C0E9468000E947A000E948D000E9427
S11301F0A000F501252D11922A95E9F7798A4A8AFA
S11302006B8A3C8A2D8A7E8A6F8A82E5888F9FE476
S1130210998FEAE4EA8F85E48B8F83E48C8F84E5FD
S11302208D8FF401252D11922A95E9F788E38983AE
S11302308A837B8289E38C8394E39D837E828F838C
S113024082E38887798681E38A8780E38B878C873A
S11302507D868501F80181918F010E94B300FFE939
S113026026E881E0F15020408040E1F700C0000022
S11302700E151F0579F780EC85BB17B8E7EAF1E6A0
S11302803197F1F700C0000081E087B983ED90E376
S11302900197F1F700C0000017B88E010F5F1F4FE0
S11302A0F80181918F010E94B300FFE926E881E003
S11302B0F15020408040E1F700C000000C151D05FE
S11302C079F78FCF1ABA87E187BB8FEF81BB1BBA4F
S11302D00E944C000E9451000E945E008091000127
S10D02E082BB0E94BF00F894FFCF18
S9030000FC
